{
  "contractName": "Escrow",
  "abi": [
    {
      "inputs": [
        {
          "internalType": "address",
          "name": "_buyer",
          "type": "address"
        },
        {
          "internalType": "address payable",
          "name": "_seller",
          "type": "address"
        }
      ],
      "payable": false,
      "stateMutability": "nonpayable",
      "type": "constructor"
    },
    {
      "constant": false,
      "inputs": [],
      "name": "makePayment",
      "outputs": [],
      "payable": true,
      "stateMutability": "payable",
      "type": "function"
    },
    {
      "constant": false,
      "inputs": [],
      "name": "confirmDelivery",
      "outputs": [],
      "payable": false,
      "stateMutability": "nonpayable",
      "type": "function"
    }
  ],
  "bytecode": "0x608060405234801561001057600080fd5b506040516103553803806103558339818101604052604081101561003357600080fd5b81019080805190602001909291908051906020019092919050505080600160006101000a81548173ffffffffffffffffffffffffffffffffffffffff021916908373ffffffffffffffffffffffffffffffffffffffff160217905550816000806101000a81548173ffffffffffffffffffffffffffffffffffffffff021916908373ffffffffffffffffffffffffffffffffffffffff1602179055506000600160146101000a81548160ff021916908360028111156100ee57fe5b02179055505050610251806101046000396000f3fe6080604052600436106100295760003560e01c80635e10177b1461002e578063d8d7970014610045575b600080fd5b34801561003a57600080fd5b5061004361004f565b005b61004d61016a565b005b6000809054906101000a900473ffffffffffffffffffffffffffffffffffffffff1673ffffffffffffffffffffffffffffffffffffffff163373ffffffffffffffffffffffffffffffffffffffff16146100a857600080fd5b60018060149054906101000a900460ff1660028111156100c457fe5b8160028111156100d057fe5b146100da57600080fd5b600160009054906101000a900473ffffffffffffffffffffffffffffffffffffffff1673ffffffffffffffffffffffffffffffffffffffff166108fc479081150290604051600060405180830381858888f19350505050158015610142573d6000803e3d6000fd5b506002600160146101000a81548160ff0219169083600281111561016257fe5b021790555050565b6000809054906101000a900473ffffffffffffffffffffffffffffffffffffffff1673ffffffffffffffffffffffffffffffffffffffff163373ffffffffffffffffffffffffffffffffffffffff16146101c357600080fd5b6000600160149054906101000a900460ff1660028111156101e057fe5b8160028111156101ec57fe5b146101f657600080fd5b60018060146101000a81548160ff0219169083600281111561021457fe5b02179055505056fea265627a7a7231582059125c3fb89815de6790f23bbef85a989f2ba31ceb442243b2d7f6f8b138e07b64736f6c63430005100032",
  "source": "pragma solidity >=0.4.22 <0.9.0;\r\n\r\ncontract Escrow {\r\n\r\n    //transaction state\r\n    enum State  {AWAITING_PAYMENT, AWAITING_DELIVERY, COMPLETED}\r\n\r\n    //buyer and seller address\r\n    address buyer;\r\n    address payable seller;\r\n    State currentState;\r\n\r\n\r\n    // modifiers\r\n    modifier onlyBuyer() {require(msg.sender == buyer); _;}\r\n    modifier inState(State expectedState) {require(expectedState == currentState); _;}\r\n\r\n\r\n    constructor(address _buyer, address payable _seller) public {\r\n        seller = _seller;\r\n        buyer = _buyer;\r\n        currentState = State.AWAITING_PAYMENT;\r\n    }\r\n\r\n    function makePayment() payable onlyBuyer inState(State.AWAITING_PAYMENT) public {\r\n        currentState = State.AWAITING_DELIVERY;\r\n\r\n    }\r\n\r\n    function confirmDelivery() onlyBuyer inState(State.AWAITING_DELIVERY) public {\r\n        \r\n        seller.transfer(address(this).balance);\r\n        currentState = State.COMPLETED;\r\n\r\n    }\r\n\r\n}",
  "sourcePath": "C:/Users/Hp/Documents/Smart_Contract_Tut/Escrow Contract/contracts/Escrow.sol",
  "compiler": {
    "name": "solc",
    "version": "0.5.16+commit.9c3226ce.Emscripten.clang"
  },
  "schemaVersion": "3.4.0",
  "updatedAt": "2021-04-30T16:21:46.919Z",
  "networkType": "ethereum",
  "devdoc": {
    "methods": {}
  },
  "userdoc": {
    "methods": {}
  }
}